S01A0000746172676574486974496E64696361746F722E73726563C1
S11300000C9438000C9455000C949D000C945500ED
S11300100C9455000C9455000C9455000C94550008
S11300200C9455000C9455000C9455000C945500F8
S11300300C9455000C9455000C9455000C945500E8
S11300400C9457000C9455000C9455000C945500D6
S11300500C9455000C9455000C9455000C945500C8
S11300600C9455000C9455000C9455000C945500B8
S113007011241FBECFEFD4E0DEBFCDBF11E0A0E05E
S1130080B1E0E0E2FCE002C005900D92A23DB107B0
S1130090D9F722E0A2EDB1E001C01D92A433B2076A
S11300A0E1F70E94AD020C940E060C9400001F921E
S11300B00F920FB60F9211242F933F934F935F9398
S11300C06F937F938F939F93AF93BF93CF93DF935C
S11300D0EF93FF93C091D4010E9409038D3041F442
S11300E081E080932502C093D3011092D40112C001
S11300F0833031F481E0809325021092D4010AC048
S1130100D0E0FE01EB52FE4F80830E940E03219645
S1130110C093D401FF91EF91DF91CF91BF91AF9143
S11301209F918F917F916F915F914F913F912F910B
S11301300F900FBE0F901F9018951F920F920FB63D
S11301400F9211248F9380912602811107C081E0C0
S1130150809326028FB18F718093D2018F910F907B
S11301600FBE0F901F9018956B9A2FE38EE795E0C2
S1130170215080409040E1F700C000006B982FE3CD
S11301808EE795E0215080409040E1F700C00000E8
S1130190089582E191E09F938F930E942F030F9023
S11301A00F9008950F931F93CF93DF93D82FC62FEB
S11301B0062F10E01F926F9327E232E033273F931C
S11301C02F9389E191E09F938F930E942F030F90C7
S11301D00F900F900F900F900F90C33099F028F468
S11301E0C13041F0C23051F07AC0C43079F0C5302A
S11301F089F075C024E130E08D9A0FC024E130E02D
S11302008E9A0BC024E130E06A9A07C024E130E002
S1130210699A03C024E130E0489AD23739F48FE672
S113022097E10197F1F700C0000006C087EB9BE05F
S11302300197F1F700C00000C33011F128F4C13078
S113024041F0C23089F04BC0C43031F1C53081F186
S113025046C08D988FE59AEE0197F1F700C0000033
S11302602150310949F62FC08E988FE59AEE0197F7
S1130270F1F700C000002150310909F0C1CF23C0BB
S11302806A988FE59AEE0197F1F700C000002150BB
S1130290310909F0B9CF17C069988FE59AEE019733
S11302A0F1F700C000002150310909F0B1CF0BC0B3
S11302B048988FE59AEE0197F1F700C000002150AD
S11302C0310909F0A9CFD23729F4F801E95DFD4FCE
S11302D0108205C0F801E95DFD4F81E08083DF9164
S11302E0CF911F910F910895BF92CF92DF92EF9219
S11302F0FF920F931F93CF93DF937C0100E011E0F3
S1130300C0E0D0E0F801819191918F01FC0101904E
S11303100020E9F73197AF01481B590BB7010E9440
S11303202103892B11F02196EDCFC430D10578F04B
S1130330FF92EF9280E391E09F938F930E942F03AB
S11303400E94C9000F900F900F900F90ADC020979E
S113035029F0C130D10509F461C098C0F701868144
S1130360823741F59085913609F050C00F2EF8E29E
S1130370CF2EF2E0DF2EF02D0DE212E0E6010F2E7B
S1130380F6E4EF2EF1E0FF2EF02D8991813071F427
S11303906C2F6C1982E70E94D200FE013197108203
S11303A0FF92EF920E942F030F900F90C017D10776
S11303B061F731C0883651F5F7019085913631F5F2
S11303C00F2EF8E2CF2EF2E0DF2EF02D0DE212E038
S11303D0E601BB24B3940F2EF6E4EF2EF1E0FF2EDA
S11303E0F02D899181110EC06C2F6C1988E60E9442
S11303F0D200FE013197B082FF92EF920E942F0348
S11304000F900F90C017D10761F705C0F701608501
S113041060530E94D2000E94C90046C01F9280E22D
S11304208F931F9282E08F931F921F9287E591E032
S11304309F938F930E942F030F2EF8E2EF2EF2E08A
S1130440FF2EF02D8DB79EB708960FB6F8949EBF79
S11304500FBE8DBFC1E0D0E000E811E0F70181914B
S11304607F011F928F93DF93CF931F930F930E946B
S11304702F0321960F900F900F900F900F900F90D5
S1130480C630D10559F70E94C9000EC0DF93CF933F
S113049086E991E09F938F930E942F030E94C900E5
S11304A00F900F900F900F9080E0DF91CF911F91EC
S11304B00F91FF90EF90DF90CF90BF900895CF936E
S11304C080B3806680BB88B1856088B98CB18E604A
S11304D08CB91092260284E091E0909331028093CB
S11304E030020E94000361E682E70E94D20086B7D0
S11304F0816086BF8CB788608CBF87B58F6187BDEC
S113050078941F9280E28F931F9282E08F931F92C0
S11305101F9281EA91E09F938F930E942F038DB7DE
S11305209EB708960FB6F8949EBF0FBE8DBFC4E069
S113053009C08AE090E00E9445030E94B4000E9432
S1130540C90009C08EE290E00E9445030E94B400F5
S1130550C150C1F7EECFCF9108950E945F0210E021
S1130560C5EBD1E0E12CF12C00E580912502882334
S1130570B1F0109225028091D301811103C00E9431
S1130580C900F3CF682F70E085ED91E00E947401FB
S1130590E5EDF1E0DF01802F1D928A95E9F7809166
S11305A02602882311F38091D2011F928F93DF9347
S11305B0CF930E942F030F900F900F900F902E2D2A
S11305C03F2D8091D20190E0022E02C0959587952F
S11305D00A94E2F7019711F411E0120F2F5F3F4FD5
S11305E02530310571F78FEF810F853020F4612FAD
S11305F088E60E94D2000E94C90010922602B5CF5C
S11306008DE481BD12BC88E185BD85B5806885BD5A
S1130610089506B407FEFDCF80B5089506B405FE1F
S1130620FDCF80BD0895CF93C82F8A3019F48DE093
S11306300E940E038C2F0E940E0380E090E0CF9165
S11306400895FB01DC014150504030F08D91019040
S1130650801919F40020B9F7881B990B0895A0E0BC
S1130660B0E0E5E3F3E00C94E705AE014B5F5F4FC8
S1130670FA0161917191AF01809130029091310240
S11306800E944C03E2E00C940306609130027091E6
S113069031020E9436050895ACE0B0E0E2E5F3E0F3
S11306A00C94D7057C016B018A01FC011782168228
S11306B0838181FFBFC1CE0101964C01F701938173
S11306C0F60193FD859193FF81916F01882309F4CD
S11306D0ADC1853239F493FD859193FF81916F010A
S11306E0853229F4B70190E00E943605E7CF512CFA
S11306F0312C20E02032A0F48B3269F030F48032C7
S113070059F0833269F420612EC08D3239F0803380
S113071039F4216028C02260246025C0286023C0E9
S113072027FD29C030ED380F3A3088F426FF07C082
S1130730852D6AE00E94CE05582E530E14C0832DD9
S11307406AE00E94CE05382E330E20620CC08E3231
S113075021F426FD6BC1206406C08C3611F4206898
S113076002C0883641F4F60193FD859193FF81918F
S11307706F018111BFCF982F9F7D9554933028F43A
S11307800C5F1F4FFFE3F9830DC0833631F08337CD
S113079071F0833509F05BC022C0F8018081898340
S11307A00E5F1F4F44244394512C540115C038014B
S11307B0F2E06F0E711CF801A080B18026FF03C027
S11307C0652D70E002C06FEF7FEFC5012C870E949A
S11307D02B052C0183012C852F77222E17C038017D
S11307E0F2E06F0E711CF801A080B18026FF03C0F7
S11307F0652D70E002C06FEF7FEFC5012C870E946A
S113080020052C012C852068222E830123FC1BC08B
S1130810832D90E048165906B0F4B70180E290E0C9
S11308200E9436053A94F4CFF50127FC859127FE02
S113083081915F01B70190E00E94360531103A942E
S1130840F1E04F1A51084114510471F7E5C08436A0
S113085011F0893639F5F80127FF07C060817181ED
S1130860828193810C5F1F4F08C060817181072EC4
S1130870000C880B990B0E5F1F4F2F76722E97FF7B
S113088009C090958095709561957F4F8F4F9F4FCC
S11308902068722E2AE030E0A4010E946E05A82E82
S11308A0A81844C0853729F42F7EB22E2AE030E000
S11308B025C0F22FF97FBF2E8F36C1F018F488358A
S11308C079F0B4C0803719F0883721F0AFC02F2FEA
S11308D02061B22EB4FE0DC08B2D8460B82E09C0E9
S11308E024FF0AC09F2F9660B92E06C028E030E08E
S11308F005C020E130E002C020E132E0F801B7FE9B
S113090007C060817181828193810C5F1F4F06C093
S11309106081718180E090E00E5F1F4FA4010E940E
S11309206E05A82EA818FB2DFF777F2E76FE0BC030
S1130930372D3E7FA51450F474FE0AC072FC08C023
S1130940372D3E7E05C0BA2C372D03C0BA2C01C00A
S1130950B52C34FF0DC0FE01EA0DF11D80818033FA
S113096011F4397E09C032FF06C0B394B39404C0B5
S1130970832F867809F0B39433FD13C030FF06C08B
S11309805A2CB31418F4530C5B18B32CB31468F436
S1130990B70180E290E03C870E943605B3943C8521
S11309A0F5CFB31410F43B1801C0312C34FF12C03E
S11309B0B70180E390E03C870E9436053C8532FF16
S11309C017C031FD03C088E790E002C088E590E0DD
S11309D0B7010CC0832F867859F031FF02C08BE237
S11309E001C080E237FD8DE2B70190E00E94360538
S11309F0A51438F4B70180E390E00E9436055A94B8
S1130A00F7CFAA94F401EA0DF11D8081B70190E0BB
S1130A100E943605A110F5CF332009F44FCEB7015B
S1130A2080E290E00E9436053A94F6CFF701868181
S1130A30978102C08FEF9FEF2C96E2E10C94F305AF
S1130A40FC010590615070400110D8F78095909595
S1130A508E0F9F1F0895FC0161507040019001109A
S1130A60D8F7809590958E0F9F1F08950F931F932D
S1130A70CF93DF93FB01238121FD03C08FEF9FEF11
S1130A8028C022FF16C04681578124813581421730
S1130A90530744F4A081B1819D012F5F3F4F3183FF
S1130AA020838C93268137812F5F3F4F37832683A2
S1130AB010C0EB01092F182F0084F185E02D099552
S1130AC0892BE1F68E819F8101969F838E83812FEE
S1130AD0902FDF91CF911F910F910895FA01AA27CA
S1130AE0283061F1203191F1E8946F936E7F6E5F4D
S1130AF07F4F8F4F9F4FAF4FB1E040D0B4E03ED017
S1130B00670F781F891F9A1FA11D680F791F8A1FFD
S1130B10911DA11D6A0F711D811D911DA11D22D062
S1130B2009F468943F91062E000C3019000C000C57
S1130B303019305D3193CEF6CF010895462F4770BA
S1130B40405D4193B3E00FD0C9F7F6CF462F4F7005
S1130B50405D4A3318F0495D31FD4052419302D063
S1130B60A9F7EACFB4E0A695979587957795679509
S1130B70BA95C9F700976105710508959B01AC0109
S1130B800A2E06945795479537952795BA95C9F730
S1130B90620F731F841F951FA01D0895002480FDFC
S1130BA0060E660F11F08695D1F7802D08952F92C9
S1130BB03F924F925F926F927F928F929F92AF92E9
S1130BC0BF92CF92DF92EF92FF920F931F93CF9336
S1130BD0DF93CDB7DEB7CA1BDB0B0FB6F894DEBFCD
S1130BE00FBECDBF09942A88398848885F846E84F3
S1130BF07D848C849B84AA84B984C884DF80EE803D
S1130C00FD800C811B81AA81B981CE0FD11D0FB645
S1130C10F894DEBF0FBECDBFED010895F894FFCF69
S1130C20C701CD0100000002000000001303000012
S1130C3000000A6274743E20000A73746174653D96
S1130C4025782C2C2C7461726765743D25640A0028
S1130C500A2573206973206E6F74207265636F6751
S1130C606E697A6564000A4D6F76696E67207365F4
S1130C7072766F2E2E2E000A42696174686C6F6E54
S1130C80546F79546172676574207665722E2025DD
S1130C90642E2564206275696C643A2025640A0018
S1130CA05461726765745B25645D20737461746557
S1130CB03A2025640A000A4E4F505B693D25645D65
S1130CC00056657273696F6E2E25642E25642D623D
S1130CD03A25640A000A484954206F6E20746172F0
S1130CE067657420257800736572766F00696E6697
S1050CF06F008F
S9030000FC
